{
  "contractName": "MetaYantra",
  "abi": [
    {
      "inputs": [],
      "stateMutability": "nonpayable",
      "type": "constructor"
    },
    {
      "anonymous": false,
      "inputs": [
        {
          "indexed": true,
          "internalType": "address",
          "name": "owner",
          "type": "address"
        },
        {
          "indexed": true,
          "internalType": "address",
          "name": "approved",
          "type": "address"
        },
        {
          "indexed": true,
          "internalType": "uint256",
          "name": "tokenId",
          "type": "uint256"
        }
      ],
      "name": "Approval",
      "type": "event"
    },
    {
      "anonymous": false,
      "inputs": [
        {
          "indexed": true,
          "internalType": "address",
          "name": "owner",
          "type": "address"
        },
        {
          "indexed": true,
          "internalType": "address",
          "name": "operator",
          "type": "address"
        },
        {
          "indexed": false,
          "internalType": "bool",
          "name": "approved",
          "type": "bool"
        }
      ],
      "name": "ApprovalForAll",
      "type": "event"
    },
    {
      "anonymous": false,
      "inputs": [
        {
          "indexed": true,
          "internalType": "address",
          "name": "previousOwner",
          "type": "address"
        },
        {
          "indexed": true,
          "internalType": "address",
          "name": "newOwner",
          "type": "address"
        }
      ],
      "name": "OwnershipTransferred",
      "type": "event"
    },
    {
      "anonymous": false,
      "inputs": [
        {
          "indexed": true,
          "internalType": "address",
          "name": "from",
          "type": "address"
        },
        {
          "indexed": true,
          "internalType": "address",
          "name": "to",
          "type": "address"
        },
        {
          "indexed": true,
          "internalType": "uint256",
          "name": "tokenId",
          "type": "uint256"
        }
      ],
      "name": "Transfer",
      "type": "event"
    },
    {
      "inputs": [
        {
          "internalType": "address",
          "name": "to",
          "type": "address"
        },
        {
          "internalType": "uint256",
          "name": "tokenId",
          "type": "uint256"
        }
      ],
      "name": "approve",
      "outputs": [],
      "stateMutability": "nonpayable",
      "type": "function"
    },
    {
      "inputs": [
        {
          "internalType": "address",
          "name": "owner",
          "type": "address"
        }
      ],
      "name": "balanceOf",
      "outputs": [
        {
          "internalType": "uint256",
          "name": "",
          "type": "uint256"
        }
      ],
      "stateMutability": "view",
      "type": "function",
      "constant": true
    },
    {
      "inputs": [
        {
          "internalType": "uint256",
          "name": "tokenId",
          "type": "uint256"
        }
      ],
      "name": "getApproved",
      "outputs": [
        {
          "internalType": "address",
          "name": "",
          "type": "address"
        }
      ],
      "stateMutability": "view",
      "type": "function",
      "constant": true
    },
    {
      "inputs": [
        {
          "internalType": "address",
          "name": "owner",
          "type": "address"
        },
        {
          "internalType": "address",
          "name": "operator",
          "type": "address"
        }
      ],
      "name": "isApprovedForAll",
      "outputs": [
        {
          "internalType": "bool",
          "name": "",
          "type": "bool"
        }
      ],
      "stateMutability": "view",
      "type": "function",
      "constant": true
    },
    {
      "inputs": [],
      "name": "name",
      "outputs": [
        {
          "internalType": "string",
          "name": "",
          "type": "string"
        }
      ],
      "stateMutability": "view",
      "type": "function",
      "constant": true
    },
    {
      "inputs": [],
      "name": "owner",
      "outputs": [
        {
          "internalType": "address",
          "name": "",
          "type": "address"
        }
      ],
      "stateMutability": "view",
      "type": "function",
      "constant": true
    },
    {
      "inputs": [
        {
          "internalType": "uint256",
          "name": "tokenId",
          "type": "uint256"
        }
      ],
      "name": "ownerOf",
      "outputs": [
        {
          "internalType": "address",
          "name": "",
          "type": "address"
        }
      ],
      "stateMutability": "view",
      "type": "function",
      "constant": true
    },
    {
      "inputs": [],
      "name": "renounceOwnership",
      "outputs": [],
      "stateMutability": "nonpayable",
      "type": "function"
    },
    {
      "inputs": [
        {
          "internalType": "address",
          "name": "from",
          "type": "address"
        },
        {
          "internalType": "address",
          "name": "to",
          "type": "address"
        },
        {
          "internalType": "uint256",
          "name": "tokenId",
          "type": "uint256"
        }
      ],
      "name": "safeTransferFrom",
      "outputs": [],
      "stateMutability": "nonpayable",
      "type": "function"
    },
    {
      "inputs": [
        {
          "internalType": "address",
          "name": "from",
          "type": "address"
        },
        {
          "internalType": "address",
          "name": "to",
          "type": "address"
        },
        {
          "internalType": "uint256",
          "name": "tokenId",
          "type": "uint256"
        },
        {
          "internalType": "bytes",
          "name": "_data",
          "type": "bytes"
        }
      ],
      "name": "safeTransferFrom",
      "outputs": [],
      "stateMutability": "nonpayable",
      "type": "function"
    },
    {
      "inputs": [
        {
          "internalType": "address",
          "name": "operator",
          "type": "address"
        },
        {
          "internalType": "bool",
          "name": "approved",
          "type": "bool"
        }
      ],
      "name": "setApprovalForAll",
      "outputs": [],
      "stateMutability": "nonpayable",
      "type": "function"
    },
    {
      "inputs": [
        {
          "internalType": "bytes4",
          "name": "interfaceId",
          "type": "bytes4"
        }
      ],
      "name": "supportsInterface",
      "outputs": [
        {
          "internalType": "bool",
          "name": "",
          "type": "bool"
        }
      ],
      "stateMutability": "view",
      "type": "function",
      "constant": true
    },
    {
      "inputs": [],
      "name": "symbol",
      "outputs": [
        {
          "internalType": "string",
          "name": "",
          "type": "string"
        }
      ],
      "stateMutability": "view",
      "type": "function",
      "constant": true
    },
    {
      "inputs": [
        {
          "internalType": "uint256",
          "name": "tokenId",
          "type": "uint256"
        }
      ],
      "name": "tokenURI",
      "outputs": [
        {
          "internalType": "string",
          "name": "",
          "type": "string"
        }
      ],
      "stateMutability": "view",
      "type": "function",
      "constant": true
    },
    {
      "inputs": [
        {
          "internalType": "address",
          "name": "from",
          "type": "address"
        },
        {
          "internalType": "address",
          "name": "to",
          "type": "address"
        },
        {
          "internalType": "uint256",
          "name": "tokenId",
          "type": "uint256"
        }
      ],
      "name": "transferFrom",
      "outputs": [],
      "stateMutability": "nonpayable",
      "type": "function"
    },
    {
      "inputs": [
        {
          "internalType": "address",
          "name": "newOwner",
          "type": "address"
        }
      ],
      "name": "transferOwnership",
      "outputs": [],
      "stateMutability": "nonpayable",
      "type": "function"
    },
    {
      "inputs": [
        {
          "internalType": "address",
          "name": "person",
          "type": "address"
        },
        {
          "internalType": "string",
          "name": "tokenURI",
          "type": "string"
        }
      ],
      "name": "awardItem",
      "outputs": [
        {
          "internalType": "uint256",
          "name": "",
          "type": "uint256"
        }
      ],
      "stateMutability": "nonpayable",
      "type": "function"
    }
  ],
  "bytecode": "0x60806040523480156200001157600080fd5b506040518060400160405280600a81526020017f4d65746159616e747261000000000000000000000000000000000000000000008152506040518060400160405280600381526020017f4d59540000000000000000000000000000000000000000000000000000000000815250816000908051906020019062000096929190620001a6565b508060019080519060200190620000af929190620001a6565b505050620000d2620000c6620000d860201b60201c565b620000e060201b60201c565b620002bb565b600033905090565b6000600760009054906101000a900473ffffffffffffffffffffffffffffffffffffffff16905081600760006101000a81548173ffffffffffffffffffffffffffffffffffffffff021916908373ffffffffffffffffffffffffffffffffffffffff1602179055508173ffffffffffffffffffffffffffffffffffffffff168173ffffffffffffffffffffffffffffffffffffffff167f8be0079c531659141344cd1fd0a4f28419497f9722a3daafe3b4186f6b6457e060405160405180910390a35050565b828054620001b49062000256565b90600052602060002090601f016020900481019282620001d8576000855562000224565b82601f10620001f357805160ff191683800117855562000224565b8280016001018555821562000224579182015b828111156200022357825182559160200191906001019062000206565b5b50905062000233919062000237565b5090565b5b808211156200025257600081600090555060010162000238565b5090565b600060028204905060018216806200026f57607f821691505b602082108114156200028657620002856200028c565b5b50919050565b7f4e487b7100000000000000000000000000000000000000000000000000000000600052602260045260246000fd5b612f6c80620002cb6000396000f3fe608060405234801561001057600080fd5b506004361061010b5760003560e01c8063715018a6116100a2578063b88d4fde11610071578063b88d4fde146102a4578063c87b56dd146102c0578063cf378343146102f0578063e985e9c514610320578063f2fde38b146103505761010b565b8063715018a6146102425780638da5cb5b1461024c57806395d89b411461026a578063a22cb465146102885761010b565b806323b872dd116100de57806323b872dd146101aa57806342842e0e146101c65780636352211e146101e257806370a08231146102125761010b565b806301ffc9a71461011057806306fdde0314610140578063081812fc1461015e578063095ea7b31461018e575b600080fd5b61012a60048036038101906101259190611f1b565b61036c565b6040516101379190612367565b60405180910390f35b61014861044e565b6040516101559190612382565b60405180910390f35b61017860048036038101906101739190611f6d565b6104e0565b6040516101859190612300565b60405180910390f35b6101a860048036038101906101a39190611edf565b610565565b005b6101c460048036038101906101bf9190611d85565b61067d565b005b6101e060048036038101906101db9190611d85565b6106dd565b005b6101fc60048036038101906101f79190611f6d565b6106fd565b6040516102099190612300565b60405180910390f35b61022c60048036038101906102279190611d20565b6107af565b60405161023991906125e4565b60405180910390f35b61024a610867565b005b6102546108ef565b6040516102619190612300565b60405180910390f35b610272610919565b60405161027f9190612382565b60405180910390f35b6102a2600480360381019061029d9190611e4f565b6109ab565b005b6102be60048036038101906102b99190611dd4565b6109c1565b005b6102da60048036038101906102d59190611f6d565b610a23565b6040516102e79190612382565b60405180910390f35b61030a60048036038101906103059190611e8b565b610b75565b60405161031791906125e4565b60405180910390f35b61033a60048036038101906103359190611d49565b610bac565b6040516103479190612367565b60405180910390f35b61036a60048036038101906103659190611d20565b610c40565b005b60007f80ac58cd000000000000000000000000000000000000000000000000000000007bffffffffffffffffffffffffffffffffffffffffffffffffffffffff1916827bffffffffffffffffffffffffffffffffffffffffffffffffffffffff1916148061043757507f5b5e139f000000000000000000000000000000000000000000000000000000007bffffffffffffffffffffffffffffffffffffffffffffffffffffffff1916827bffffffffffffffffffffffffffffffffffffffffffffffffffffffff1916145b80610447575061044682610d38565b5b9050919050565b60606000805461045d9061283a565b80601f01602080910402602001604051908101604052809291908181526020018280546104899061283a565b80156104d65780601f106104ab576101008083540402835291602001916104d6565b820191906000526020600020905b8154815290600101906020018083116104b957829003601f168201915b5050505050905090565b60006104eb82610da2565b61052a576040517f08c379a000000000000000000000000000000000000000000000000000000000815260040161052190612544565b60405180910390fd5b6004600083815260200190815260200160002060009054906101000a900473ffffffffffffffffffffffffffffffffffffffff169050919050565b6000610570826106fd565b90508073ffffffffffffffffffffffffffffffffffffffff168373ffffffffffffffffffffffffffffffffffffffff1614156105e1576040517f08c379a00000000000000000000000000000000000000000000000000000000081526004016105d8906125a4565b60405180910390fd5b8073ffffffffffffffffffffffffffffffffffffffff16610600610e0e565b73ffffffffffffffffffffffffffffffffffffffff16148061062f575061062e81610629610e0e565b610bac565b5b61066e576040517f08c379a000000000000000000000000000000000000000000000000000000000815260040161066590612484565b60405180910390fd5b6106788383610e16565b505050565b61068e610688610e0e565b82610ecf565b6106cd576040517f08c379a00000000000000000000000000000000000000000000000000000000081526004016106c4906125c4565b60405180910390fd5b6106d8838383610fad565b505050565b6106f8838383604051806020016040528060008152506109c1565b505050565b6000806002600084815260200190815260200160002060009054906101000a900473ffffffffffffffffffffffffffffffffffffffff169050600073ffffffffffffffffffffffffffffffffffffffff168173ffffffffffffffffffffffffffffffffffffffff1614156107a6576040517f08c379a000000000000000000000000000000000000000000000000000000000815260040161079d906124c4565b60405180910390fd5b80915050919050565b60008073ffffffffffffffffffffffffffffffffffffffff168273ffffffffffffffffffffffffffffffffffffffff161415610820576040517f08c379a0000000000000000000000000000000000000000000000000000000008152600401610817906124a4565b60405180910390fd5b600360008373ffffffffffffffffffffffffffffffffffffffff1673ffffffffffffffffffffffffffffffffffffffff168152602001908152602001600020549050919050565b61086f610e0e565b73ffffffffffffffffffffffffffffffffffffffff1661088d6108ef565b73ffffffffffffffffffffffffffffffffffffffff16146108e3576040517f08c379a00000000000000000000000000000000000000000000000000000000081526004016108da90612564565b60405180910390fd5b6108ed6000611214565b565b6000600760009054906101000a900473ffffffffffffffffffffffffffffffffffffffff16905090565b6060600180546109289061283a565b80601f01602080910402602001604051908101604052809291908181526020018280546109549061283a565b80156109a15780601f10610976576101008083540402835291602001916109a1565b820191906000526020600020905b81548152906001019060200180831161098457829003601f168201915b5050505050905090565b6109bd6109b6610e0e565b83836112da565b5050565b6109d26109cc610e0e565b83610ecf565b610a11576040517f08c379a0000000000000000000000000000000000000000000000000000000008152600401610a08906125c4565b60405180910390fd5b610a1d84848484611447565b50505050565b6060610a2e82610da2565b610a6d576040517f08c379a0000000000000000000000000000000000000000000000000000000008152600401610a6490612524565b60405180910390fd5b6000600660008481526020019081526020016000208054610a8d9061283a565b80601f0160208091040260200160405190810160405280929190818152602001828054610ab99061283a565b8015610b065780601f10610adb57610100808354040283529160200191610b06565b820191906000526020600020905b815481529060010190602001808311610ae957829003601f168201915b505050505090506000610b176114a3565b9050600081511415610b2d578192505050610b70565b600082511115610b62578082604051602001610b4a9291906122dc565b60405160208183030381529060405292505050610b70565b610b6b846114ba565b925050505b919050565b600080610b826008611561565b9050610b8e848261156f565b610b988184611749565b610ba260086117bd565b8091505092915050565b6000600560008473ffffffffffffffffffffffffffffffffffffffff1673ffffffffffffffffffffffffffffffffffffffff16815260200190815260200160002060008373ffffffffffffffffffffffffffffffffffffffff1673ffffffffffffffffffffffffffffffffffffffff16815260200190815260200160002060009054906101000a900460ff16905092915050565b610c48610e0e565b73ffffffffffffffffffffffffffffffffffffffff16610c666108ef565b73ffffffffffffffffffffffffffffffffffffffff1614610cbc576040517f08c379a0000000000000000000000000000000000000000000000000000000008152600401610cb390612564565b60405180910390fd5b600073ffffffffffffffffffffffffffffffffffffffff168173ffffffffffffffffffffffffffffffffffffffff161415610d2c576040517f08c379a0000000000000000000000000000000000000000000000000000000008152600401610d23906123c4565b60405180910390fd5b610d3581611214565b50565b60007f01ffc9a7000000000000000000000000000000000000000000000000000000007bffffffffffffffffffffffffffffffffffffffffffffffffffffffff1916827bffffffffffffffffffffffffffffffffffffffffffffffffffffffff1916149050919050565b60008073ffffffffffffffffffffffffffffffffffffffff166002600084815260200190815260200160002060009054906101000a900473ffffffffffffffffffffffffffffffffffffffff1673ffffffffffffffffffffffffffffffffffffffff1614159050919050565b600033905090565b816004600083815260200190815260200160002060006101000a81548173ffffffffffffffffffffffffffffffffffffffff021916908373ffffffffffffffffffffffffffffffffffffffff160217905550808273ffffffffffffffffffffffffffffffffffffffff16610e89836106fd565b73ffffffffffffffffffffffffffffffffffffffff167f8c5be1e5ebec7d5bd14f71427d1e84f3dd0314c0f7b2291e5b200ac8c7c3b92560405160405180910390a45050565b6000610eda82610da2565b610f19576040517f08c379a0000000000000000000000000000000000000000000000000000000008152600401610f1090612464565b60405180910390fd5b6000610f24836106fd565b90508073ffffffffffffffffffffffffffffffffffffffff168473ffffffffffffffffffffffffffffffffffffffff161480610f665750610f658185610bac565b5b80610fa457508373ffffffffffffffffffffffffffffffffffffffff16610f8c846104e0565b73ffffffffffffffffffffffffffffffffffffffff16145b91505092915050565b8273ffffffffffffffffffffffffffffffffffffffff16610fcd826106fd565b73ffffffffffffffffffffffffffffffffffffffff1614611023576040517f08c379a000000000000000000000000000000000000000000000000000000000815260040161101a906123e4565b60405180910390fd5b600073ffffffffffffffffffffffffffffffffffffffff168273ffffffffffffffffffffffffffffffffffffffff161415611093576040517f08c379a000000000000000000000000000000000000000000000000000000000815260040161108a90612424565b60405180910390fd5b61109e8383836117d3565b6110a9600082610e16565b6001600360008573ffffffffffffffffffffffffffffffffffffffff1673ffffffffffffffffffffffffffffffffffffffff16815260200190815260200160002060008282546110f99190612750565b925050819055506001600360008473ffffffffffffffffffffffffffffffffffffffff1673ffffffffffffffffffffffffffffffffffffffff168152602001908152602001600020600082825461115091906126c9565b92505081905550816002600083815260200190815260200160002060006101000a81548173ffffffffffffffffffffffffffffffffffffffff021916908373ffffffffffffffffffffffffffffffffffffffff160217905550808273ffffffffffffffffffffffffffffffffffffffff168473ffffffffffffffffffffffffffffffffffffffff167fddf252ad1be2c89b69c2b068fc378daa952ba7f163c4a11628f55a4df523b3ef60405160405180910390a461120f8383836117d8565b505050565b6000600760009054906101000a900473ffffffffffffffffffffffffffffffffffffffff16905081600760006101000a81548173ffffffffffffffffffffffffffffffffffffffff021916908373ffffffffffffffffffffffffffffffffffffffff1602179055508173ffffffffffffffffffffffffffffffffffffffff168173ffffffffffffffffffffffffffffffffffffffff167f8be0079c531659141344cd1fd0a4f28419497f9722a3daafe3b4186f6b6457e060405160405180910390a35050565b8173ffffffffffffffffffffffffffffffffffffffff168373ffffffffffffffffffffffffffffffffffffffff161415611349576040517f08c379a000000000000000000000000000000000000000000000000000000000815260040161134090612444565b60405180910390fd5b80600560008573ffffffffffffffffffffffffffffffffffffffff1673ffffffffffffffffffffffffffffffffffffffff16815260200190815260200160002060008473ffffffffffffffffffffffffffffffffffffffff1673ffffffffffffffffffffffffffffffffffffffff16815260200190815260200160002060006101000a81548160ff0219169083151502179055508173ffffffffffffffffffffffffffffffffffffffff168373ffffffffffffffffffffffffffffffffffffffff167f17307eab39ab6107e8899845ad3d59bd9653f200f220920489ca2b5937696c318360405161143a9190612367565b60405180910390a3505050565b611452848484610fad565b61145e848484846117dd565b61149d576040517f08c379a0000000000000000000000000000000000000000000000000000000008152600401611494906123a4565b60405180910390fd5b50505050565b606060405180602001604052806000815250905090565b60606114c582610da2565b611504576040517f08c379a00000000000000000000000000000000000000000000000000000000081526004016114fb90612584565b60405180910390fd5b600061150e6114a3565b9050600081511161152e5760405180602001604052806000815250611559565b8061153884611974565b6040516020016115499291906122dc565b6040516020818303038152906040525b915050919050565b600081600001549050919050565b600073ffffffffffffffffffffffffffffffffffffffff168273ffffffffffffffffffffffffffffffffffffffff1614156115df576040517f08c379a00000000000000000000000000000000000000000000000000000000081526004016115d690612504565b60405180910390fd5b6115e881610da2565b15611628576040517f08c379a000000000000000000000000000000000000000000000000000000000815260040161161f90612404565b60405180910390fd5b611634600083836117d3565b6001600360008473ffffffffffffffffffffffffffffffffffffffff1673ffffffffffffffffffffffffffffffffffffffff168152602001908152602001600020600082825461168491906126c9565b92505081905550816002600083815260200190815260200160002060006101000a81548173ffffffffffffffffffffffffffffffffffffffff021916908373ffffffffffffffffffffffffffffffffffffffff160217905550808273ffffffffffffffffffffffffffffffffffffffff16600073ffffffffffffffffffffffffffffffffffffffff167fddf252ad1be2c89b69c2b068fc378daa952ba7f163c4a11628f55a4df523b3ef60405160405180910390a4611745600083836117d8565b5050565b61175282610da2565b611791576040517f08c379a0000000000000000000000000000000000000000000000000000000008152600401611788906124e4565b60405180910390fd5b806006600084815260200190815260200160002090805190602001906117b8929190611b44565b505050565b6001816000016000828254019250508190555050565b505050565b505050565b60006117fe8473ffffffffffffffffffffffffffffffffffffffff16611b21565b15611967578373ffffffffffffffffffffffffffffffffffffffff1663150b7a02611827610e0e565b8786866040518563ffffffff1660e01b8152600401611849949392919061231b565b602060405180830381600087803b15801561186357600080fd5b505af192505050801561189457506040513d601f19601f820116820180604052508101906118919190611f44565b60015b611917573d80600081146118c4576040519150601f19603f3d011682016040523d82523d6000602084013e6118c9565b606091505b5060008151141561190f576040517f08c379a0000000000000000000000000000000000000000000000000000000008152600401611906906123a4565b60405180910390fd5b805181602001fd5b63150b7a0260e01b7bffffffffffffffffffffffffffffffffffffffffffffffffffffffff1916817bffffffffffffffffffffffffffffffffffffffffffffffffffffffff19161491505061196c565b600190505b949350505050565b606060008214156119bc576040518060400160405280600181526020017f30000000000000000000000000000000000000000000000000000000000000008152509050611b1c565b600082905060005b600082146119ee5780806119d79061289d565b915050600a826119e7919061271f565b91506119c4565b60008167ffffffffffffffff811115611a30577f4e487b7100000000000000000000000000000000000000000000000000000000600052604160045260246000fd5b6040519080825280601f01601f191660200182016040528015611a625781602001600182028036833780820191505090505b5090505b60008514611b1557600182611a7b9190612750565b9150600a85611a8a91906128e6565b6030611a9691906126c9565b60f81b818381518110611ad2577f4e487b7100000000000000000000000000000000000000000000000000000000600052603260045260246000fd5b60200101907effffffffffffffffffffffffffffffffffffffffffffffffffffffffffffff1916908160001a905350600a85611b0e919061271f565b9450611a66565b8093505050505b919050565b6000808273ffffffffffffffffffffffffffffffffffffffff163b119050919050565b828054611b509061283a565b90600052602060002090601f016020900481019282611b725760008555611bb9565b82601f10611b8b57805160ff1916838001178555611bb9565b82800160010185558215611bb9579182015b82811115611bb8578251825591602001919060010190611b9d565b5b509050611bc69190611bca565b5090565b5b80821115611be3576000816000905550600101611bcb565b5090565b6000611bfa611bf584612624565b6125ff565b905082815260208101848484011115611c1257600080fd5b611c1d8482856127f8565b509392505050565b6000611c38611c3384612655565b6125ff565b905082815260208101848484011115611c5057600080fd5b611c5b8482856127f8565b509392505050565b600081359050611c7281612eda565b92915050565b600081359050611c8781612ef1565b92915050565b600081359050611c9c81612f08565b92915050565b600081519050611cb181612f08565b92915050565b600082601f830112611cc857600080fd5b8135611cd8848260208601611be7565b91505092915050565b600082601f830112611cf257600080fd5b8135611d02848260208601611c25565b91505092915050565b600081359050611d1a81612f1f565b92915050565b600060208284031215611d3257600080fd5b6000611d4084828501611c63565b91505092915050565b60008060408385031215611d5c57600080fd5b6000611d6a85828601611c63565b9250506020611d7b85828601611c63565b9150509250929050565b600080600060608486031215611d9a57600080fd5b6000611da886828701611c63565b9350506020611db986828701611c63565b9250506040611dca86828701611d0b565b9150509250925092565b60008060008060808587031215611dea57600080fd5b6000611df887828801611c63565b9450506020611e0987828801611c63565b9350506040611e1a87828801611d0b565b925050606085013567ffffffffffffffff811115611e3757600080fd5b611e4387828801611cb7565b91505092959194509250565b60008060408385031215611e6257600080fd5b6000611e7085828601611c63565b9250506020611e8185828601611c78565b9150509250929050565b60008060408385031215611e9e57600080fd5b6000611eac85828601611c63565b925050602083013567ffffffffffffffff811115611ec957600080fd5b611ed585828601611ce1565b9150509250929050565b60008060408385031215611ef257600080fd5b6000611f0085828601611c63565b9250506020611f1185828601611d0b565b9150509250929050565b600060208284031215611f2d57600080fd5b6000611f3b84828501611c8d565b91505092915050565b600060208284031215611f5657600080fd5b6000611f6484828501611ca2565b91505092915050565b600060208284031215611f7f57600080fd5b6000611f8d84828501611d0b565b91505092915050565b611f9f81612784565b82525050565b611fae81612796565b82525050565b6000611fbf82612686565b611fc9818561269c565b9350611fd9818560208601612807565b611fe2816129d3565b840191505092915050565b6000611ff882612691565b61200281856126ad565b9350612012818560208601612807565b61201b816129d3565b840191505092915050565b600061203182612691565b61203b81856126be565b935061204b818560208601612807565b80840191505092915050565b60006120646032836126ad565b915061206f826129e4565b604082019050919050565b60006120876026836126ad565b915061209282612a33565b604082019050919050565b60006120aa6025836126ad565b91506120b582612a82565b604082019050919050565b60006120cd601c836126ad565b91506120d882612ad1565b602082019050919050565b60006120f06024836126ad565b91506120fb82612afa565b604082019050919050565b60006121136019836126ad565b915061211e82612b49565b602082019050919050565b6000612136602c836126ad565b915061214182612b72565b604082019050919050565b60006121596038836126ad565b915061216482612bc1565b604082019050919050565b600061217c602a836126ad565b915061218782612c10565b604082019050919050565b600061219f6029836126ad565b91506121aa82612c5f565b604082019050919050565b60006121c2602e836126ad565b91506121cd82612cae565b604082019050919050565b60006121e56020836126ad565b91506121f082612cfd565b602082019050919050565b60006122086031836126ad565b915061221382612d26565b604082019050919050565b600061222b602c836126ad565b915061223682612d75565b604082019050919050565b600061224e6020836126ad565b915061225982612dc4565b602082019050919050565b6000612271602f836126ad565b915061227c82612ded565b604082019050919050565b60006122946021836126ad565b915061229f82612e3c565b604082019050919050565b60006122b76031836126ad565b91506122c282612e8b565b604082019050919050565b6122d6816127ee565b82525050565b60006122e88285612026565b91506122f48284612026565b91508190509392505050565b60006020820190506123156000830184611f96565b92915050565b60006080820190506123306000830187611f96565b61233d6020830186611f96565b61234a60408301856122cd565b818103606083015261235c8184611fb4565b905095945050505050565b600060208201905061237c6000830184611fa5565b92915050565b6000602082019050818103600083015261239c8184611fed565b905092915050565b600060208201905081810360008301526123bd81612057565b9050919050565b600060208201905081810360008301526123dd8161207a565b9050919050565b600060208201905081810360008301526123fd8161209d565b9050919050565b6000602082019050818103600083015261241d816120c0565b9050919050565b6000602082019050818103600083015261243d816120e3565b9050919050565b6000602082019050818103600083015261245d81612106565b9050919050565b6000602082019050818103600083015261247d81612129565b9050919050565b6000602082019050818103600083015261249d8161214c565b9050919050565b600060208201905081810360008301526124bd8161216f565b9050919050565b600060208201905081810360008301526124dd81612192565b9050919050565b600060208201905081810360008301526124fd816121b5565b9050919050565b6000602082019050818103600083015261251d816121d8565b9050919050565b6000602082019050818103600083015261253d816121fb565b9050919050565b6000602082019050818103600083015261255d8161221e565b9050919050565b6000602082019050818103600083015261257d81612241565b9050919050565b6000602082019050818103600083015261259d81612264565b9050919050565b600060208201905081810360008301526125bd81612287565b9050919050565b600060208201905081810360008301526125dd816122aa565b9050919050565b60006020820190506125f960008301846122cd565b92915050565b600061260961261a565b9050612615828261286c565b919050565b6000604051905090565b600067ffffffffffffffff82111561263f5761263e6129a4565b5b612648826129d3565b9050602081019050919050565b600067ffffffffffffffff8211156126705761266f6129a4565b5b612679826129d3565b9050602081019050919050565b600081519050919050565b600081519050919050565b600082825260208201905092915050565b600082825260208201905092915050565b600081905092915050565b60006126d4826127ee565b91506126df836127ee565b9250827fffffffffffffffffffffffffffffffffffffffffffffffffffffffffffffffff0382111561271457612713612917565b5b828201905092915050565b600061272a826127ee565b9150612735836127ee565b92508261274557612744612946565b5b828204905092915050565b600061275b826127ee565b9150612766836127ee565b92508282101561277957612778612917565b5b828203905092915050565b600061278f826127ce565b9050919050565b60008115159050919050565b60007fffffffff0000000000000000000000000000000000000000000000000000000082169050919050565b600073ffffffffffffffffffffffffffffffffffffffff82169050919050565b6000819050919050565b82818337600083830152505050565b60005b8381101561282557808201518184015260208101905061280a565b83811115612834576000848401525b50505050565b6000600282049050600182168061285257607f821691505b6020821081141561286657612865612975565b5b50919050565b612875826129d3565b810181811067ffffffffffffffff82111715612894576128936129a4565b5b80604052505050565b60006128a8826127ee565b91507fffffffffffffffffffffffffffffffffffffffffffffffffffffffffffffffff8214156128db576128da612917565b5b600182019050919050565b60006128f1826127ee565b91506128fc836127ee565b92508261290c5761290b612946565b5b828206905092915050565b7f4e487b7100000000000000000000000000000000000000000000000000000000600052601160045260246000fd5b7f4e487b7100000000000000000000000000000000000000000000000000000000600052601260045260246000fd5b7f4e487b7100000000000000000000000000000000000000000000000000000000600052602260045260246000fd5b7f4e487b7100000000000000000000000000000000000000000000000000000000600052604160045260246000fd5b6000601f19601f8301169050919050565b7f4552433732313a207472616e7366657220746f206e6f6e20455243373231526560008201527f63656976657220696d706c656d656e7465720000000000000000000000000000602082015250565b7f4f776e61626c653a206e6577206f776e657220697320746865207a65726f206160008201527f6464726573730000000000000000000000000000000000000000000000000000602082015250565b7f4552433732313a207472616e736665722066726f6d20696e636f72726563742060008201527f6f776e6572000000000000000000000000000000000000000000000000000000602082015250565b7f4552433732313a20746f6b656e20616c7265616479206d696e74656400000000600082015250565b7f4552433732313a207472616e7366657220746f20746865207a65726f2061646460008201527f7265737300000000000000000000000000000000000000000000000000000000602082015250565b7f4552433732313a20617070726f766520746f2063616c6c657200000000000000600082015250565b7f4552433732313a206f70657261746f7220717565727920666f72206e6f6e657860008201527f697374656e7420746f6b656e0000000000000000000000000000000000000000602082015250565b7f4552433732313a20617070726f76652063616c6c6572206973206e6f74206f7760008201527f6e6572206e6f7220617070726f76656420666f7220616c6c0000000000000000602082015250565b7f4552433732313a2062616c616e636520717565727920666f7220746865207a6560008201527f726f206164647265737300000000000000000000000000000000000000000000602082015250565b7f4552433732313a206f776e657220717565727920666f72206e6f6e657869737460008201527f656e7420746f6b656e0000000000000000000000000000000000000000000000602082015250565b7f45524337323155524953746f726167653a2055524920736574206f66206e6f6e60008201527f6578697374656e7420746f6b656e000000000000000000000000000000000000602082015250565b7f4552433732313a206d696e7420746f20746865207a65726f2061646472657373600082015250565b7f45524337323155524953746f726167653a2055524920717565727920666f722060008201527f6e6f6e6578697374656e7420746f6b656e000000000000000000000000000000602082015250565b7f4552433732313a20617070726f76656420717565727920666f72206e6f6e657860008201527f697374656e7420746f6b656e0000000000000000000000000000000000000000602082015250565b7f4f776e61626c653a2063616c6c6572206973206e6f7420746865206f776e6572600082015250565b7f4552433732314d657461646174613a2055524920717565727920666f72206e6f60008201527f6e6578697374656e7420746f6b656e0000000000000000000000000000000000602082015250565b7f4552433732313a20617070726f76616c20746f2063757272656e74206f776e6560008201527f7200000000000000000000000000000000000000000000000000000000000000602082015250565b7f4552433732313a207472616e736665722063616c6c6572206973206e6f74206f60008201527f776e6572206e6f7220617070726f766564000000000000000000000000000000602082015250565b612ee381612784565b8114612eee57600080fd5b50565b612efa81612796565b8114612f0557600080fd5b50565b612f11816127a2565b8114612f1c57600080fd5b50565b612f28816127ee565b8114612f3357600080fd5b5056fea26469706673582212209a01322794272a7470160f39ec4ff38e57b9795ae33162e087e50818804ed39b64736f6c63430008010033",
  "immutableReferences": {},
  "source": "// SPDX-License-Identifier: MIT\r\npragma solidity ^0.8.1;\r\n\r\nimport \"@openzeppelin/contracts/token/ERC721/extensions/ERC721URIStorage.sol\";\r\nimport \"@openzeppelin/contracts/utils/Counters.sol\";\r\nimport \"@openzeppelin/contracts/access/Ownable.sol\";\r\n\r\n/**\r\n * @title MetaYantra contract\r\n * Extends ERC721URIStorage Non-Fungible Token Standard basic implementation\r\n */\r\ncontract MetaYantra is ERC721URIStorage, Ownable {\r\n    using Counters for Counters.Counter;\r\n    Counters.Counter private _tokenIds;\r\n\r\n    constructor() ERC721(\"MetaYantra\", \"MYT\") {}\r\n\r\n    function awardItem(address person, string memory tokenURI)\r\n        public\r\n        returns (uint256)\r\n    {\r\n        uint256 newItemId = _tokenIds.current();\r\n        _mint(person, newItemId);\r\n        _setTokenURI(newItemId, tokenURI);\r\n\r\n        _tokenIds.increment();\r\n        return newItemId;\r\n    }\r\n}",
  "sourcePath": "D:\\Workspace\\hackathon2022\\metayantra\\contracts\\MetaYantra.sol",
  "compiler": {
    "name": "solc",
    "version": "0.8.1+commit.df193b15.Emscripten.clang"
  },
  "schemaVersion": "3.4.3",
  "updatedAt": "2022-06-16T07:00:39.811Z",
  "networkType": "ethereum",
  "devdoc": {
    "kind": "dev",
    "methods": {
      "approve(address,uint256)": {
        "details": "See {IERC721-approve}."
      },
      "balanceOf(address)": {
        "details": "See {IERC721-balanceOf}."
      },
      "getApproved(uint256)": {
        "details": "See {IERC721-getApproved}."
      },
      "isApprovedForAll(address,address)": {
        "details": "See {IERC721-isApprovedForAll}."
      },
      "name()": {
        "details": "See {IERC721Metadata-name}."
      },
      "owner()": {
        "details": "Returns the address of the current owner."
      },
      "ownerOf(uint256)": {
        "details": "See {IERC721-ownerOf}."
      },
      "renounceOwnership()": {
        "details": "Leaves the contract without owner. It will not be possible to call `onlyOwner` functions anymore. Can only be called by the current owner. NOTE: Renouncing ownership will leave the contract without an owner, thereby removing any functionality that is only available to the owner."
      },
      "safeTransferFrom(address,address,uint256)": {
        "details": "See {IERC721-safeTransferFrom}."
      },
      "safeTransferFrom(address,address,uint256,bytes)": {
        "details": "See {IERC721-safeTransferFrom}."
      },
      "setApprovalForAll(address,bool)": {
        "details": "See {IERC721-setApprovalForAll}."
      },
      "supportsInterface(bytes4)": {
        "details": "See {IERC165-supportsInterface}."
      },
      "symbol()": {
        "details": "See {IERC721Metadata-symbol}."
      },
      "tokenURI(uint256)": {
        "details": "See {IERC721Metadata-tokenURI}."
      },
      "transferFrom(address,address,uint256)": {
        "details": "See {IERC721-transferFrom}."
      },
      "transferOwnership(address)": {
        "details": "Transfers ownership of the contract to a new account (`newOwner`). Can only be called by the current owner."
      }
    },
    "title": "MetaYantra contract Extends ERC721URIStorage Non-Fungible Token Standard basic implementation",
    "version": 1
  },
  "userdoc": {
    "kind": "user",
    "methods": {},
    "version": 1
  }
}